:0300000002075A9A
:0C075A00787FE4F6D8FD7581450207A108
:10096E00413030317272303000413030327272307C
:10097E0030004130303372723030004130303472DA
:10098E0072303000413030357272303000413030CC
:10099E003672723030003F065B4F666D7D077F6F9B
:0409D00002240001FC
:10041400E4F508F509758920758DFD758BFD7598D2
:1004240050D28ED2AFD2AC120003300AFD750D004B
:10043400750E00750F3D7B007A0079341200267822
:100444002B7C007D007BFF7A09796E1203F7EF7035
:100454000B300908300B051207E680E3782B7C008B
:100464007D007BFF7A0979771203F7EF700D30096D
:100474000A300B071207E6C20A80E1782B7C007D64
:10048400007BFF7A0979801203F7EF700B300908BB
:10049400300B051207E680E3782B7C007D007BFFA0
:1004A4007A0979891203F7EF700B300908300B05CC
:1004B4001207E680E3782B7C007D007BFF7A0979C4
:1004C400921203F7EF700B300908300B051207E6A0
:1004D40080E3782B7C007D007BFF7A09799B1203F3
:1004E400F7EF700B300908300B051207E680E3E5DF
:1004F4002B64587048300945300B4220082AFB7A97
:10050400007934120598D208E4F508F509742B250E
:1005140009F8E6FF1208E60509E50970020508C3B3
:100524009408E508940040E57B007A00792B750F68
:10053400007510017D087C001207F280B2E52B647F
:1005440059600302042E20090302042E200B030227
:10055400042E20082AFB7A00793D120598D208E47B
:10056400F508F509742B2509F8E6FF12092A05098F
:10057400E50970020508C39408E508940040E57B8A
:10058400007A00792B750F007510017D087C00122C
:0405940007F280A941
:030023000206BC16
:1006BC00C0E0C0F0C083C082C0D075D000C000C004
:0D06CC0001C002C003C004C005C006C00785
:1006D90030985F200960C298742B2523F8A69905E4
:1006E90023E52370020522640845227049200A1B6C
:1006F900782B7C00FD7BFF7A09796E1203F7EF7086
:1007090029D209D20AF522F523802BE52B64416011
:1007190017E52B64436011E52B6444600BE52B64FA
:10072900586005E52BB4590ED209752200752300CE
:060739008004C299D20BFE
:10073F00D007D006D005D004D003D002D001D0000E
:0B074F00D0D0D082D083D0F0D0E032B8
:10000300E4FF7E08782BE4F608DEFCC209D20BC2BB
:030013000AC20816
:0100160022C7
:0C07E600FB7A00792BF50FF5107D06FC66
:1007F200E5256401452470067599423099FD8525E9
:100802008285248312022AF5993099FD0525E52572
:1008120070020524B50521ECB5241DE510450F70C5
:1008220017C209C20BF5247525017599313099FD5E
:1008320075993120991B80FBEDB52515ECB5241176
:10084200E5106401450F7009C209C208F524752537
:0108520001A4
:010853002282
:100026008B0A8A0B890C90000112022AFF3395E095
:10003600FE74A42FF58274093EF583E493F580AB34
:100046000DAA0EA90F90000112022AFF3395E0FEB9
:1000560074A42FF58274093EF583E493F5A0759098
:10006600011209AEE4F580F5A0AB0AAA0BA90C9023
:10007600000212022AFF3395E0FE74A42FF5827463
:10008600093EF583E493F580AB0DAA0EA90F900007
:100096000212022AFF3395E0FE74A42FF58274093A
:1000A6003EF583E493F5A07590021209AEE4F5805F
:1000B600F5A0AB0AAA0BA90C90000312022AFF3383
:1000C60095E0FE74A42FF58274093EF583E493F55A
:1000D60080AB0DAA0EA90F90000312022AFF3395DA
:1000E600E0FE74A42FF58274093EF583E493F5A02F
:1000F6007590041209AEE4F580F5A0AB0AAA0BA927
:100106000C90000412022AFF3395E0FE74A42FF52A
:100116008274093EF583E4932480F580AB0DAA0E24
:10012600A90F90000412022AFF3395E0FE74A42F53
:10013600F58274093EF583E4932480F5A075900852
:100146001209AEE4F580F5A0AB0AAA0BA90C900043
:100156000512022AFF3395E0FE74A42FF582740976
:100166003EF583E493F580AB0DAA0EA90F9000052A
:1001760012022AFF3395E0FE74A42FF58274093E1D
:10018600F583E493F5A07590101209AEE4F580F5B9
:10019600A0AB0AAA0BA90C90000612022AFF3395FF
:1001A600E0FE74A42FF58274093EF583E493F5808E
:1001B600AB0DAA0EA90F90000612022AFF3395E096
:1001C600FE74A42FF58274093EF583E493F5A075B9
:1001D60090201209AEE4F580F5A0AB0AAA0BA90C93
:1001E60090000712022AFF3395E0FE74A42FF582D1
:1001F60074093EF583E493F580AB0DAA0EA90F9022
:10020600000712022AFF3395E0FE74A42FF58274CC
:10021600093EF583E493F5A07590401209AEE4F526
:0402260080F5A0229D
:060598008B0A8A0B890C9E
:10059E00E4F50DF50E742B250EF8E6FF24A8603950
:1005AE001460472429B40A0040030206AA9005C924
:1005BE0075F003A4C58325F0C583730206090206F0
:1005CE00190206290206390206490206590206696F
:1005DE00020679020689020699AB0AAA0BA90C85B6
:1005EE000E82850D8374580206A7AB0AAA0BA90CBE
:1005FE00850E82850D8374590206A7AB0AAA0BA934
:10060E000C850E82850D83E40206A7AB0AAA0BA900
:10061E000C850E82850D837401807EAB0AAA0BA910
:10062E000C850E82850D837402806EAB0AAA0BA90F
:10063E000C850E82850D837403805EAB0AAA0BA90E
:10064E000C850E82850D837404804EAB0AAA0BA90D
:10065E000C850E82850D837405803EAB0AAA0BA90C
:10066E000C850E82850D837406802EAB0AAA0BA90B
:10067E000C850E82850D837407801EAB0AAA0BA90A
:10068E000C850E82850D837408800EAB0AAA0BA909
:10069E000C850E82850D837409120257050EE50E28
:0D06AE007002050D6408450D60030205A3F0
:0106BB00221C
:1009AE007C007D01ED1DAA0470011C4A6013E4FE5B
:1009BE00FFC3EF947DEE940050EA0FBF00010E804E
:0109CE00F038
:0109CF002205
:1008540020B5FD0000000000000000120017A2B542
:100864009200120017A2B59201120017A2B59202CB
:10087400120017A2B59203120017A2B59204120037
:1008840017A2B59205120017A2B59206120017A27C
:09089400B59207120017AF2022F3
:1008E6008F20C2B4120017A20092B4120017A20100
:1008F60092B4120017A20292B4120017A20392B485
:10090600120017A20492B4120017A20592B41200A4
:1009160017A20692B4120017A20792B4120017D2B9
:04092600B402001700
:10089D0020B3FD0000000000000000120017A2B3FD
:1008AD009200120017A2B39201120017A2B3920286
:1008BD00120017A2B39203120017A2B392041200F2
:1008CD0017A2B39205120017A2B39206120017A237
:0908DD00B39207120017AF2022AC
:10092A008F20C2B2120017A20092B2120017A201BF
:10093A0092B2120017A20292B2120017A20392B246
:10094A00120017A20492B2120017A20592B2120064
:10095A0017A20692B2120017A20792B2120017D279
:04096A00B2020017BE
:08001700E4FF0FBF1DFC000017
:01001F0022BE
:10076600020414E493A3F8E493A34003F68001F291
:1007760008DFF48029E493A3F85407240CC8C33394
:10078600C4540F4420C8834004F456800146F6DF63
:10079600E4800B01020408102040809009D0E47E1A
:1007A600019360BCA3FF543F30E509541FFEE49358
:1007B600A360010ECF54C025E060A840B8E493A31F
:1007C600FAE493A3F8E493A3C8C582C8CAC583CA4A
:1007D600F0A3C8C582C8CAC583CADFE9DEE780BE02
:0109D4000022
:10022A00BB010CE58229F582E5833AF583E0225089
:10023A0006E92582F8E622BBFE06E92582F8E222D3
:0D024A00E58229F582E5833AF583E49322ED
:10025700F8BB010DE58229F582E5833AF583E8F0DD
:10026700225006E92582C8F622BBFE05E92582C889
:02027700F22271
:10027900E3F5F009E208B5F06D606B80F3E3F5F0A2
:1002890009E608B5F060605E80F387F009E608B515
:10029900F054605280F487F009E208B5F0486046EE
:1002A90080F488828C8387F009E0A3B5F038603642
:1002B90080F488828C8387F009E493A3B5F02760E2
:1002C9002580F388828C83E3F5F009E0A3B5F01665
:1002D900601480F388828C83E3F5F009E493A3B575
:1002E900F004600280F20203A4808580E7808E809A
:1002F900D2803C8015806C807E809B80B5808B800D
:10030900A1804F8070803A0203B089828A83ECFA17
:10031900E493F5F0A3C8C582C8CCC583CCE493A304
:10032900C8C582C8CCC583CCB5F070606E80E18940
:10033900828A83E493F5F0A3E208B5F05E605C80FD
:10034900F289828A83E0F5F0A3E608B5F04D604BA7
:1003590080F389828A83E0F5F0A3E208B5F03C6076
:100369003A80F389828A83E493F5F0A3E608B5F02D
:100379002A602880F2805389828A83ECFAE493F513
:10038900F0A3C8C582C8CCC583CCE0A3C8C582C8C0
:10039900CCC583CCB5F004600280E27FFFB5F002E2
:1003A9000F2240027F012289828A83ECFAE0F5F06C
:1003B900A3C8C582C8CCC583CCE0A3C8C582C8CCB4
:1003C900C583CCB5F0D560D380E389828A83ECFA02
:1003D900E0F5F0A3C8C582C8CCC583CCE493A3C813
:1003E900C582C8CCC583CCB5F0B160AF80E288F0D6
:1003F900ED2402B4040050A3F582EB2402B40400F6
:0B040900509923234582239002F273D8
:00000001FF
