:030000000201CC2E
:0C01CC00787FE4F6D8FD7581450202132F
:0A0387003F065B4F666D7D077F6F38
:0E036D000821040C0818103020240232000071
:100128007B007A007934120003C3E5339408E53282
:10013800940050251202BEEF24D0FFAE33743D2E3A
:10014800F8A607743D2EF8E6FF74342EF8A60705C6
:1001580033E53370D4053280D0750A07750BD0E4C7
:100168007511B875100BF50FF50EE50D450C70B04F
:10017800780E74FF1202A0EC4D4E4F603EE4F50875
:10018800F50974212509F8E6F590AF0BAE0A1203BC
:100198007C0509E50970020508C39408E508940080
:1001A80040E0D3E50B9464E50A940040C374F62557
:1001B8000BF50B74FF350AF50A80B5750C00750D43
:0401C8000102012807
:100003008B128A1389141202586428600302012791
:10001300900001120271FF3395E0FE74872FF58281
:1000230074033EF583E493F58075A00112034BE45A
:10003300F580AB12AA13A914900002120271FF33C8
:1000430095E0FE74872FF58274033EF583E493F500
:100053008075A00212034BE4F580AB12AA13A91416
:10006300900003120271FF3395E0FE74872FF5822F
:1000730074033EF583E493F58075A00412034BE407
:10008300F580AB12AA13A914900004120271FF3376
:1000930095E0FE74872FF58274033EF583E4932481
:1000A30080F58075A00812034BE4F580AB12AA1308
:1000B300A914900005120271FF3395E0FE74872F97
:1000C300F58274033EF583E493F58075A010120363
:1000D3004BE4F580AB12AA13A91490000612027127
:1000E300FF3395E0FE74872FF58274033EF583E4B6
:1000F30093F58075A02012034BE4F580AB12AA138D
:10010300A914900007120271FF3395E0FE74872F44
:10011300F58274033EF583E493F58075A0401203E2
:050123004BE4F5802211
:10034B007C007D01ED1DAA0470011C4A6013E4FEC4
:10035B00FFC3EF947DEE940050EA0FBF00010E80B7
:01036B00F0A1
:01036C00226E
:08039100E4FF0FBF1DFC00009A
:010399002241
:0B037C00EF1FAC0670011E4C70F62253
:1002BE0020B5FD0000000000000000120391A2B561
:1002CE009200120391A2B59201120391A2B592026D
:1002DE00120391A2B59203120391A2B592041203D6
:1002EE0091A2B59205120391A2B59206120391A2A4
:0902FE00B59207120391AF202212
:100307008F20C2B4120391A20092B4120391A201EA
:1003170092B4120391A20292B4120391A20392B46F
:10032700120391A20492B4120391A20592B412038C
:1003370091A20692B4120391A20792B4120391D22A
:04034700B402039168
:1001D800020128E493A3F8E493A34003F68001F214
:1001E80008DFF48029E493A3F85407240CC8C33328
:1001F800C4540F4420C8834004F456800146F6DFF7
:10020800E4800B010204081020408090036DE47E16
:10021800019360BCA3FF543F30E509541FFEE493EB
:10022800A360010ECF54C025E060A840B8E493A3B2
:10023800FAE493A3F8E493A3C8C582C8CAC583CADD
:10024800F0A3C8C582C8CAC583CADFE9DEE780BE95
:01037B000081
:10025800BB010689828A83E0225002E722BBFE02A4
:09026800E32289828A83E49322D7
:10027100BB010CE58229F582E5833AF583E0225042
:1002810006E92582F8E622BBFE06E92582F8E2228C
:0D029100E58229F582E5833AF583E49322A6
:10029E007401FF3395E0FEFDFC080808E6CF2FF64B
:1002AE0018E6CE3EF618E6CD3DF618E6CC3CF62224
:00000001FF
